:10012700758ACD758CF8D28C308DFDC28CC28D222C
:100137008F03E4F50CF50DEBFF7E007C037DE812E1
:10014700002BE50CB50605E50DB50700500D1201AE
:0C01570027050DE50D70E0050C80DC2292
:0A0015003098FDAE998E07C29822C4
:0F016300D2993099FDC2998F993099FDC2992296
:10017200EBFDEAFCE9F8D299EDFBECFAE8F91200A2
:03018200FC601707
:100185003099FDC299EDFBECFAE8F91200FCF599FE
:0D01950008E870E10C80DE3099FDC299226F
:0301A200EF700FEC
:1001A500D2A0D2A1D2A2D2A3D2A4D2A5C2A622BF46
:0201B500010F38
:1001B700C2A0D2A1D2A2C2A3C2A4C2A5C2A622BF74
:0201C700020F25
:1001C900D2A0D2A1C2A2D2A3D2A4C2A5D2A622BF32
:0201D900030F12
:1001DB00D2A0D2A1D2A2D2A3C2A4C2A5D2A622BF20
:0201EB00040FFF
:1001ED00C2A0D2A1D2A2C2A3C2A4D2A5D2A622BF1E
:0201FD00050FEC
:1001FF00D2A0C2A1D2A2D2A3C2A4D2A5D2A622BFFC
:02020F00060FD8
:10021100D2A0C2A1D2A2D2A3D2A4D2A5D2A622BFD9
:02022100070FC5
:10022300D2A0D2A1D2A2C2A3C2A4C2A5C2A622BFF7
:02023300080FB2
:10023500D2A0D2A1D2A2D2A3D2A4D2A5D2A622BFA5
:02024500090EA0
:0F024700D2A0D2A1D2A2D2A3C2A4D2A5D2A62263
:0E0256007580FFD287D293C291D29230870674
:07026400C293D29380F72240
:10026B007580008F80C291C292D293C293120256B4
:01027B002260
:10027C007580008F80D291C292D293C29312025693
:01028C00224F
:10028D007F3812026B12026B12026B7F0612026B29
:06029D007F0C12026B222F
:1002A300EBFDEAFCE9F8EDFBECFAE8F91200FC607F
:1002B30015EDFBECFAE8F908E870020CEC1200FC0F
:0702C300FF12027C80E02223
:0E02CA00EF14600A14600F14601414601922FF
:1002D800ED247FFF12026B22ED24BFFF12026B2276
:1002E800ED2493FF12026B22ED24D3FF12026B223E
:0C02F8007F0112026B1201271201272265
:10031400759850758805758921758BFF758DFFD289
:100324008EE4F50AF50B120127050BE50B700205A7
:100334000AE50AB403F0E50BB4E8EB7590F075A098
:100344000012028D1202F87B057A0379041202A3CB
:10035400D2ACD2A8D288D2AF7F531201637F61128C
:1003640001637F6A1201631201637F611201637F7B
:0403740064120163AB
:030378003000074B
:10037B00C200AF0912027CAE0AAF0BE4FC7D0A127D
:10038B00003F8D071201A2050BE50B7002050A7FDA
:06039B000112013780D7BA
:1003A100C0E0C0D0C007E59054F0F508C4540FF583
:1003B100081202F82430FF12027CD007D0D0D0E01E
:0103C1003209
:0503C200C0D0309807D7
:0A03C700C298859909D200D0D03207
:030023000203C213
:030003000203A154
:100304004D49435F465047415F4C43445F4B500067
:03000000020006F5
:0F000600758121E478FFF6D8FD75A0FF02031481
:1000FC00EB30E11320E00EC083C08289828A83E05A
:10010C00D082D08322E3226405700EC083C0828922
:0B011C00828A8393D082D08322E722E6
:10002600E0A3FEE0FFEF8DF0A4CFC5F0CCA42CFC3E
:09003600EE60038DF0A42CFE2203
:10003F00C2D1C2D5EE30E707D2D1D2D51200ECEC47
:10004F0030E705B2D11200F412006730D10312006D
:10005F00EC30D5031200F422BC000EBE0032EF8D3F
:10006F00F08420D226FFADF0227B0075F008EF2F31
:10007F00FFEE33FEEB33FBEE9DEB9C4005FBEE9D5D
:10008F00FE0FD5F0E9E4CECDCBCC227EFF7FFF2251
:10009F00EDB410005022EE8DF084FEEF54F045F0D9
:1000AF00C48DF084C4FCEF540FC445F0C48DF084AC
:1000BF00FFADF0E4CC4FFF22EE8DF08420D2CC7E4A
:1000CF0008CEC5F0CDCBEF2FFFED33FD10D7079B3B
:1000DF005005D5F0F1229BFD0FD5F0EA22C3E49F26
:0D00EF00FFE49EFE22C3E49DFDE49CFC2284
:00000001FF
