:10005900758BCD758DF8D28E308FFDC28EC28F22F1
:100069008F03E4F509F50AEBFF7E007C037DE812B6
:10007900000BE509B50605E50AB50700500D1200A4
:0C00890059050AE50A70E0050980DC2238
:0A0095003098FDAE998E07C2982244
:0F009F00D2993099FDC2998F993099FDC299225B
:1000AE00EBFDEAFCE9F8D299EDFBECFAE8F9120067
:0300BE001F6017A9
:1000C1003099FDC299EDFBECFAE8F912001FF599A0
:0D00D10008E870E10C80DE3099FDC2992234
:0E00DE007580FFD287D293C291D292308706EE
:0700EC00C293D29380F722BA
:1000F3007580008F80C291C292D293C2931200DEA8
:0101030022D9
:100104007580008F80D291C292D293C2931200DE86
:0101140022C8
:100115007F381200F37F381200F37F381200F37F27
:0A012500061200F37F0C1200F32213
:10012F00EBFDEAFCE9F8EDFBECFAE8F912001F60D1
:10013F0015EDFBECFAE8F908E870020CEC12001F61
:07014F00FF12010480E02211
:100156008F06EE14600A14600F14601414601922DE
:10016600ED247FFF1200F322ED24BFFF1200F322DD
:10017600ED2493FF1200F322ED24D3FF1200F322A5
:0C0186007F011200F312005912005922F0
:1001A200758911E4FCFD1200590DED70010CBC03C0
:1001B200F5BDE8F27590F01201151201867B057A01
:0E01C20001799212012FD2A8D288D2AF80FE0E
:1001D000C0E0C0D0C007E59054F0F508C4540FF556
:1001E000081201862430FF120104D007D0D0D0E0DD
:0101F00032DC
:030003000201D027
:100192004D49435F465047415F4C43445F4B5000DB
:0300000002004AB1
:0F004A0075810BE478FFF6D8FD75A0FF0201A2C7
:10001F00EB30E11320E00EC083C08289828A83E037
:10002F00D082D08322E3226405700EC083C0828900
:0B003F00828A8393D082D08322E722C4
:10000600E0A3FEE0FFEF8DF0A4CFC5F0CCA42CFC5E
:09001600EE60038DF0A42CFE2223
:00000001FF
