:10005600758BCD758DF8D28E308FFDC28EC28F22F4
:100066008F03E4F509F50AEBFF7E007C037DE812B9
:100076000008E509B50605E50AB50700500D1200AA
:0C00860056050AE50A70E0050980DC223E
:0A0092003098FDAE998E07C2982247
:0F009C00D2993099FDC2998F993099FDC299225E
:1000AB00EBFDEAFCE9F8D299EDFBECFAE8F912006A
:0300BB001C6017AF
:1000BE003099FDC299EDFBECFAE8F912001CF599A6
:0D00CE0008E870E10C80DE3099FDC2992237
:0E00DB007580FFD287D293C291D292308706F1
:0700E900C293D29380F722BD
:1000F0007580008F80C291C292D293C2931200DBAE
:0101000022DC
:100101007580008F80D291C292D293C2931200DB8C
:0101110022CB
:100112007F381200F01200F01200F07F061200F099
:060122007F0C1200F02228
:10012800EBFDEAFCE9F8EDFBECFAE8F912001C60DB
:1001380015EDFBECFAE8F908E870020CEC12001C6B
:07014800FF12010180E0221B
:0E014F00EF14600A14600F146014146019227B
:10015D00ED247FFF1200F022ED24BFFF1200F022EC
:10016D00ED2493FF1200F022ED24D3FF1200F022B4
:0C017D007F011200F01200561200562202
:1001A500758911E4FCFD1200560DED70010CBC07BC
:1001B500F5BDD0F27590F012011212017D7B057A22
:1001C5000179891201287F027D0112014F7B057A91
:0801D50001799812012880FE57
:10018900465047412050726F746F7479706500440E
:0C019900726976696E67204C43442000B8
:03000000020047B4
:0F00470075810BE4787FF6D8FD75A0FF0201A547
:10001C00EB30E11320E00EC083C08289828A83E03A
:10002C00D082D08322E3226405700EC083C0828903
:0B003C00828A8393D082D08322E722C7
:10000300E0A3FEE0FFEF8DF0A4CFC5F0CCA42CFC61
:09001300EE60038DF0A42CFE2226
:00000001FF
