:10006000758ACD758CF8D28C308DFDC28CC28D22F4
:100070008F03E4F50AF50BEBFF7E007C037DE812AD
:10008000000BE50AB50605E50BB50700500D12009B
:0C00900060050BE50B70E0050A80DC2227
:0A009C003098FDAE998E07C298223D
:0F00A600D2993099FDC2998F993099FDC2992254
:1000B500EBFDEAFCE9F8D299EDFBECFAE8F9120060
:0300C5002660179B
:1000C8003099FDC299EDFBECFAE8F9120026F59992
:0D00D80008E870E10C80DE3099FDC299222D
:0E00E5007580FFD287D293C291D292308706E7
:0700F300C293D29380F722B3
:1000FA007580008F80C291C292D293C2931200E59A
:01010A0022D2
:10010B007580008F80D291C292D293C2931200E578
:01011B0022C1
:10011C007F381200FA1200FA1200FA7F061200FA67
:06012C007F0C1200FA2214
:10013200EBFDEAFCE9F8EDFBECFAE8F912002660C7
:1001420015EDFBECFAE8F908E870020CEC12002657
:07015200FF12010B80E02207
:0E015900EF14600A14600F1460141460192271
:10016700ED247FFF1200FA22ED24BFFF1200FA22CE
:10017700ED2493FF1200FA22ED24D3FF1200FA2296
:0C0187007F011200FA12006012006022DA
:1001A300759850758805758921758BFF758DFFD2FC
:1001B3008EE4FCFD1200600DED70010CBC03F5BD77
:1001C300E8F27590F012011C1201877B057A017920
:1001D30093120132D2ACD2A8D288D2AF7F5312008D
:1001E300A67F611200A67F6A1200A61200A67F6195
:0801F3001200A67F641200A6B1
:0301FB003000FDD4
:0901FE00C200AF0912010B80F4EC
:10020700C0E0C0D0C007E5A054F0F508C4540FF50E
:10021700081201872430FF12010BD007D0D0D0E09D
:0102270032A4
:05022800C0D030980772
:0A022D00C298859909D200D0D032A2
:03002300020228AE
:03000300020207EF
:100193004D49435F465047415F4C43445F4B5000DA
:03000000020051AA
:0F005100758121E478FFF6D8FD75A0FF0201A3A9
:10002600EB30E11320E00EC083C08289828A83E030
:10003600D082D08322E3226405700EC083C08289F9
:0B004600828A8393D082D08322E722BD
:10000600E0A3FEE0FFEF8DF0A4CFC5F0CCA42CFC5E
:09001600EE60038DF0A42CFE2223
:00000001FF
