:10003D00758DF1758B9AD28E308FFDC28EC28F2247
:10004D00758DFF758BB7D28E308FFDC28EC28F220C
:0C005D008F80C291D293C29312004D22FA
:0C0069008F80D291D293C29312004D22DE
:10007500C2927F3812005D12003D12003D12005DF4
:1000850012004D12004D12005D7F0612005D7F0CBF
:0400950012005D22D6
:090099007F0112005D12003D22FE
:0E00A200EF14600A14600F1460141460192229
:1000B000ED247FFF12005D22ED24BFFF12005D22C0
:1000C000ED2493FF12005D22ED24D3FF12005D2288
:1000D000EBFDEAFCE9F8EDFBECFAE8F9120003604D
:0100E000140B
:1000E100EDFBECFAE8F9120003FF12006908E87071
:0500F100E40C80E12297
:10010A007B507AC4DBFEDAFC758000759000758935
:10011A0011E4FD12003D0DBDFAF9120075120099A5
:10012A007B057A0079F61200D07F027D011200A2C7
:0B013A007B057A0179051200D080FEE1
:1000F60053616A6A6164204875737361696E004969
:04010600434343002C
:0300000002002ECD
:0F002E00758108E478FFF6D8FD75A0FF02010A7E
:10000300EB30E11320E00EC083C08289828A83E053
:10001300D082D08322E3226405700EC083C082891C
:0B002300828A8393D082D08322E722E0
:00000001FF
